:100000000A128A110F280B1D03280B11C83081001A
:1000100008000B1D09280B11C830810008000314CB
:10002000831000308600003087003C3085000030AF
:1000300088000314831488018901031483100313B7
:10004000831681128111011481140115031083108C
:10005000031383120B11C830810001308600013078
:10006000870005194D2885195128051A5528851A24
:10007000592806080707F0000F3070055D2088003A
:10008000051485100320F00E0F3070055D208800E8
:1000900005108514F00E0920312805194D28860A0F
:1000A00031288519512886033128051A5528870AD1
:1000B0003128851A5928870331288A010A148207B2
:1000C0003F3406345B344F3466346D347D3407344A
:1000D0007F346F3477347C3439345E34793471341E
:04400E00F120FF3F5F
:00000001FF
