:1000000000308A0018280000243084008313000880
:10001000031917280630F800F701F70B0D28F80B25
:100020000C287B30F700F70B1328800B0A280800F8
:1000300003081F398300A001A101A2018316031741
:100040000908C039890003131F129F1200300317DB
:1000500088008312870188018901831383160313A3
:100060008601831286018316870183128701831616
:10007000880183128801A001FA30A400042020081E
:10008000860020088700A00A3C2820082107A2003B
:100090000430A300FA30A4000420A30B4A2822084D
:0600A00088003B2863000C
:04400E00E12CFF3F63
:00000001FF
;PIC16F887
;CRC=3144  CREATED="07-sep.-22 18:26"
